{
  "_format": "hh-sol-artifact-1",
  "contractName": "DigitalProductPassport",
  "sourceName": "contracts/DigitalProductPassport.sol",
  "abi": [
    {
      "inputs": [],
      "stateMutability": "nonpayable",
      "type": "constructor"
    },
    {
      "inputs": [
        {
          "internalType": "address",
          "name": "sender",
          "type": "address"
        },
        {
          "internalType": "uint256",
          "name": "tokenId",
          "type": "uint256"
        },
        {
          "internalType": "address",
          "name": "owner",
          "type": "address"
        }
      ],
      "name": "ERC721IncorrectOwner",
      "type": "error"
    },
    {
      "inputs": [
        {
          "internalType": "address",
          "name": "operator",
          "type": "address"
        },
        {
          "internalType": "uint256",
          "name": "tokenId",
          "type": "uint256"
        }
      ],
      "name": "ERC721InsufficientApproval",
      "type": "error"
    },
    {
      "inputs": [
        {
          "internalType": "address",
          "name": "approver",
          "type": "address"
        }
      ],
      "name": "ERC721InvalidApprover",
      "type": "error"
    },
    {
      "inputs": [
        {
          "internalType": "address",
          "name": "operator",
          "type": "address"
        }
      ],
      "name": "ERC721InvalidOperator",
      "type": "error"
    },
    {
      "inputs": [
        {
          "internalType": "address",
          "name": "owner",
          "type": "address"
        }
      ],
      "name": "ERC721InvalidOwner",
      "type": "error"
    },
    {
      "inputs": [
        {
          "internalType": "address",
          "name": "receiver",
          "type": "address"
        }
      ],
      "name": "ERC721InvalidReceiver",
      "type": "error"
    },
    {
      "inputs": [
        {
          "internalType": "address",
          "name": "sender",
          "type": "address"
        }
      ],
      "name": "ERC721InvalidSender",
      "type": "error"
    },
    {
      "inputs": [
        {
          "internalType": "uint256",
          "name": "tokenId",
          "type": "uint256"
        }
      ],
      "name": "ERC721NonexistentToken",
      "type": "error"
    },
    {
      "inputs": [
        {
          "internalType": "address",
          "name": "owner",
          "type": "address"
        }
      ],
      "name": "OwnableInvalidOwner",
      "type": "error"
    },
    {
      "inputs": [
        {
          "internalType": "address",
          "name": "account",
          "type": "address"
        }
      ],
      "name": "OwnableUnauthorizedAccount",
      "type": "error"
    },
    {
      "anonymous": false,
      "inputs": [
        {
          "indexed": true,
          "internalType": "address",
          "name": "owner",
          "type": "address"
        },
        {
          "indexed": true,
          "internalType": "address",
          "name": "approved",
          "type": "address"
        },
        {
          "indexed": true,
          "internalType": "uint256",
          "name": "tokenId",
          "type": "uint256"
        }
      ],
      "name": "Approval",
      "type": "event"
    },
    {
      "anonymous": false,
      "inputs": [
        {
          "indexed": true,
          "internalType": "address",
          "name": "owner",
          "type": "address"
        },
        {
          "indexed": true,
          "internalType": "address",
          "name": "operator",
          "type": "address"
        },
        {
          "indexed": false,
          "internalType": "bool",
          "name": "approved",
          "type": "bool"
        }
      ],
      "name": "ApprovalForAll",
      "type": "event"
    },
    {
      "anonymous": false,
      "inputs": [
        {
          "indexed": false,
          "internalType": "uint256",
          "name": "_fromTokenId",
          "type": "uint256"
        },
        {
          "indexed": false,
          "internalType": "uint256",
          "name": "_toTokenId",
          "type": "uint256"
        }
      ],
      "name": "BatchMetadataUpdate",
      "type": "event"
    },
    {
      "anonymous": false,
      "inputs": [
        {
          "indexed": true,
          "internalType": "uint256",
          "name": "tokenId",
          "type": "uint256"
        },
        {
          "indexed": true,
          "internalType": "uint256",
          "name": "productId",
          "type": "uint256"
        },
        {
          "indexed": true,
          "internalType": "address",
          "name": "owner",
          "type": "address"
        }
      ],
      "name": "DPPMinted",
      "type": "event"
    },
    {
      "anonymous": false,
      "inputs": [
        {
          "indexed": true,
          "internalType": "uint256",
          "name": "tokenId",
          "type": "uint256"
        },
        {
          "indexed": false,
          "internalType": "uint256",
          "name": "newScore",
          "type": "uint256"
        }
      ],
      "name": "ImpactScoreUpdated",
      "type": "event"
    },
    {
      "anonymous": false,
      "inputs": [
        {
          "indexed": false,
          "internalType": "uint256",
          "name": "_tokenId",
          "type": "uint256"
        }
      ],
      "name": "MetadataUpdate",
      "type": "event"
    },
    {
      "anonymous": false,
      "inputs": [
        {
          "indexed": true,
          "internalType": "address",
          "name": "previousOwner",
          "type": "address"
        },
        {
          "indexed": true,
          "internalType": "address",
          "name": "newOwner",
          "type": "address"
        }
      ],
      "name": "OwnershipTransferred",
      "type": "event"
    },
    {
      "anonymous": false,
      "inputs": [
        {
          "indexed": true,
          "internalType": "uint256",
          "name": "tokenId",
          "type": "uint256"
        },
        {
          "indexed": true,
          "internalType": "address",
          "name": "from",
          "type": "address"
        },
        {
          "indexed": true,
          "internalType": "address",
          "name": "to",
          "type": "address"
        }
      ],
      "name": "OwnershipTransferred",
      "type": "event"
    },
    {
      "anonymous": false,
      "inputs": [
        {
          "indexed": true,
          "internalType": "address",
          "name": "from",
          "type": "address"
        },
        {
          "indexed": true,
          "internalType": "address",
          "name": "to",
          "type": "address"
        },
        {
          "indexed": true,
          "internalType": "uint256",
          "name": "tokenId",
          "type": "uint256"
        }
      ],
      "name": "Transfer",
      "type": "event"
    },
    {
      "inputs": [
        {
          "internalType": "address",
          "name": "to",
          "type": "address"
        },
        {
          "internalType": "uint256",
          "name": "tokenId",
          "type": "uint256"
        }
      ],
      "name": "approve",
      "outputs": [],
      "stateMutability": "nonpayable",
      "type": "function"
    },
    {
      "inputs": [
        {
          "internalType": "address",
          "name": "owner",
          "type": "address"
        }
      ],
      "name": "balanceOf",
      "outputs": [
        {
          "internalType": "uint256",
          "name": "",
          "type": "uint256"
        }
      ],
      "stateMutability": "view",
      "type": "function"
    },
    {
      "inputs": [
        {
          "internalType": "uint256",
          "name": "tokenId",
          "type": "uint256"
        }
      ],
      "name": "getApproved",
      "outputs": [
        {
          "internalType": "address",
          "name": "",
          "type": "address"
        }
      ],
      "stateMutability": "view",
      "type": "function"
    },
    {
      "inputs": [
        {
          "internalType": "uint256",
          "name": "tokenId",
          "type": "uint256"
        }
      ],
      "name": "getImpactScore",
      "outputs": [
        {
          "internalType": "uint256",
          "name": "",
          "type": "uint256"
        }
      ],
      "stateMutability": "view",
      "type": "function"
    },
    {
      "inputs": [
        {
          "internalType": "uint256",
          "name": "tokenId",
          "type": "uint256"
        }
      ],
      "name": "getProductId",
      "outputs": [
        {
          "internalType": "uint256",
          "name": "",
          "type": "uint256"
        }
      ],
      "stateMutability": "view",
      "type": "function"
    },
    {
      "inputs": [
        {
          "internalType": "uint256",
          "name": "productId",
          "type": "uint256"
        }
      ],
      "name": "getTokenByProductId",
      "outputs": [
        {
          "internalType": "uint256",
          "name": "",
          "type": "uint256"
        }
      ],
      "stateMutability": "view",
      "type": "function"
    },
    {
      "inputs": [
        {
          "internalType": "uint256",
          "name": "",
          "type": "uint256"
        }
      ],
      "name": "impactScores",
      "outputs": [
        {
          "internalType": "uint256",
          "name": "",
          "type": "uint256"
        }
      ],
      "stateMutability": "view",
      "type": "function"
    },
    {
      "inputs": [
        {
          "internalType": "address",
          "name": "owner",
          "type": "address"
        },
        {
          "internalType": "address",
          "name": "operator",
          "type": "address"
        }
      ],
      "name": "isApprovedForAll",
      "outputs": [
        {
          "internalType": "bool",
          "name": "",
          "type": "bool"
        }
      ],
      "stateMutability": "view",
      "type": "function"
    },
    {
      "inputs": [
        {
          "internalType": "uint256",
          "name": "productId",
          "type": "uint256"
        },
        {
          "internalType": "address",
          "name": "recipient",
          "type": "address"
        },
        {
          "internalType": "string",
          "name": "tokenURI",
          "type": "string"
        }
      ],
      "name": "mintDPP",
      "outputs": [
        {
          "internalType": "uint256",
          "name": "",
          "type": "uint256"
        }
      ],
      "stateMutability": "nonpayable",
      "type": "function"
    },
    {
      "inputs": [],
      "name": "name",
      "outputs": [
        {
          "internalType": "string",
          "name": "",
          "type": "string"
        }
      ],
      "stateMutability": "view",
      "type": "function"
    },
    {
      "inputs": [],
      "name": "owner",
      "outputs": [
        {
          "internalType": "address",
          "name": "",
          "type": "address"
        }
      ],
      "stateMutability": "view",
      "type": "function"
    },
    {
      "inputs": [
        {
          "internalType": "uint256",
          "name": "tokenId",
          "type": "uint256"
        }
      ],
      "name": "ownerOf",
      "outputs": [
        {
          "internalType": "address",
          "name": "",
          "type": "address"
        }
      ],
      "stateMutability": "view",
      "type": "function"
    },
    {
      "inputs": [
        {
          "internalType": "uint256",
          "name": "",
          "type": "uint256"
        }
      ],
      "name": "productIdToToken",
      "outputs": [
        {
          "internalType": "uint256",
          "name": "",
          "type": "uint256"
        }
      ],
      "stateMutability": "view",
      "type": "function"
    },
    {
      "inputs": [],
      "name": "renounceOwnership",
      "outputs": [],
      "stateMutability": "nonpayable",
      "type": "function"
    },
    {
      "inputs": [
        {
          "internalType": "address",
          "name": "from",
          "type": "address"
        },
        {
          "internalType": "address",
          "name": "to",
          "type": "address"
        },
        {
          "internalType": "uint256",
          "name": "tokenId",
          "type": "uint256"
        }
      ],
      "name": "safeTransferFrom",
      "outputs": [],
      "stateMutability": "nonpayable",
      "type": "function"
    },
    {
      "inputs": [
        {
          "internalType": "address",
          "name": "from",
          "type": "address"
        },
        {
          "internalType": "address",
          "name": "to",
          "type": "address"
        },
        {
          "internalType": "uint256",
          "name": "tokenId",
          "type": "uint256"
        },
        {
          "internalType": "bytes",
          "name": "data",
          "type": "bytes"
        }
      ],
      "name": "safeTransferFrom",
      "outputs": [],
      "stateMutability": "nonpayable",
      "type": "function"
    },
    {
      "inputs": [
        {
          "internalType": "address",
          "name": "operator",
          "type": "address"
        },
        {
          "internalType": "bool",
          "name": "approved",
          "type": "bool"
        }
      ],
      "name": "setApprovalForAll",
      "outputs": [],
      "stateMutability": "nonpayable",
      "type": "function"
    },
    {
      "inputs": [
        {
          "internalType": "bytes4",
          "name": "interfaceId",
          "type": "bytes4"
        }
      ],
      "name": "supportsInterface",
      "outputs": [
        {
          "internalType": "bool",
          "name": "",
          "type": "bool"
        }
      ],
      "stateMutability": "view",
      "type": "function"
    },
    {
      "inputs": [],
      "name": "symbol",
      "outputs": [
        {
          "internalType": "string",
          "name": "",
          "type": "string"
        }
      ],
      "stateMutability": "view",
      "type": "function"
    },
    {
      "inputs": [
        {
          "internalType": "uint256",
          "name": "",
          "type": "uint256"
        }
      ],
      "name": "tokenToProductId",
      "outputs": [
        {
          "internalType": "uint256",
          "name": "",
          "type": "uint256"
        }
      ],
      "stateMutability": "view",
      "type": "function"
    },
    {
      "inputs": [
        {
          "internalType": "uint256",
          "name": "tokenId",
          "type": "uint256"
        }
      ],
      "name": "tokenURI",
      "outputs": [
        {
          "internalType": "string",
          "name": "",
          "type": "string"
        }
      ],
      "stateMutability": "view",
      "type": "function"
    },
    {
      "inputs": [
        {
          "internalType": "address",
          "name": "from",
          "type": "address"
        },
        {
          "internalType": "address",
          "name": "to",
          "type": "address"
        },
        {
          "internalType": "uint256",
          "name": "tokenId",
          "type": "uint256"
        }
      ],
      "name": "transferFrom",
      "outputs": [],
      "stateMutability": "nonpayable",
      "type": "function"
    },
    {
      "inputs": [
        {
          "internalType": "address",
          "name": "newOwner",
          "type": "address"
        }
      ],
      "name": "transferOwnership",
      "outputs": [],
      "stateMutability": "nonpayable",
      "type": "function"
    },
    {
      "inputs": [
        {
          "internalType": "uint256",
          "name": "tokenId",
          "type": "uint256"
        },
        {
          "internalType": "uint256",
          "name": "newScore",
          "type": "uint256"
        }
      ],
      "name": "updateImpactScore",
      "outputs": [],
      "stateMutability": "nonpayable",
      "type": "function"
    },
    {
      "inputs": [
        {
          "internalType": "uint256",
          "name": "tokenId",
          "type": "uint256"
        },
        {
          "internalType": "string",
          "name": "newTokenURI",
          "type": "string"
        }
      ],
      "name": "updateTokenURI",
      "outputs": [],
      "stateMutability": "nonpayable",
      "type": "function"
    }
  ],
  "bytecode": "0x60806040523480156200001157600080fd5b50336040518060400160405280601f81526020017f53616b736869204469676974616c2050726f647563742050617373706f727400815250604051806040016040528060048152602001630534450560e41b8152508160009081620000779190620001c1565b506001620000868282620001c1565b5050506001600160a01b038116620000b857604051631e4fbdf760e01b81526000600482015260240160405180910390fd5b620000c381620000ca565b506200028d565b600780546001600160a01b038381166001600160a01b0319831681179093556040519116919082907f8be0079c531659141344cd1fd0a4f28419497f9722a3daafe3b4186f6b6457e090600090a35050565b634e487b7160e01b600052604160045260246000fd5b600181811c908216806200014757607f821691505b6020821081036200016857634e487b7160e01b600052602260045260246000fd5b50919050565b601f821115620001bc57600081815260208120601f850160051c81016020861015620001975750805b601f850160051c820191505b81811015620001b857828155600101620001a3565b5050505b505050565b81516001600160401b03811115620001dd57620001dd6200011c565b620001f581620001ee845462000132565b846200016e565b602080601f8311600181146200022d5760008415620002145750858301515b600019600386901b1c1916600185901b178555620001b8565b600085815260208120601f198616915b828110156200025e578886015182559484019460019091019084016200023d565b50858210156200027d5787850151600019600388901b60f8161c191681555b5050505050600190811b01905550565b611938806200029d6000396000f3fe608060405234801561001057600080fd5b50600436106101735760003560e01c8063829c062f116100de578063b88d4fde11610097578063dd2f717411610071578063dd2f717414610348578063e985e9c51461035b578063ed390d5d1461036e578063f2fde38b1461038e57600080fd5b8063b88d4fde14610302578063c87b56dd14610315578063cacd05341461032857600080fd5b8063829c062f1461029d5780638da5cb5b146102b057806395d89b41146102c15780639a381d92146102c95780639f77a605146102dc578063a22cb465146102ef57600080fd5b806323b872dd1161013057806323b872dd1461023657806342842e0e146102495780636352211e1461025c57806364c922841461026f57806370a0823114610282578063715018a61461029557600080fd5b80630156ddc21461017857806301ffc9a7146101ab57806306fdde03146101ce578063081812fc146101e3578063095ea7b31461020e57806318e97fd114610223575b600080fd5b610198610186366004611341565b600b6020526000908152604090205481565b6040519081526020015b60405180910390f35b6101be6101b9366004611370565b6103a1565b60405190151581526020016101a2565b6101d66103b2565b6040516101a291906113dd565b6101f66101f1366004611341565b610444565b6040516001600160a01b0390911681526020016101a2565b61022161021c36600461140c565b61046d565b005b6102216102313660046114e2565b61047c565b610221610244366004611529565b6104c8565b610221610257366004611529565b610553565b6101f661026a366004611341565b610573565b61019861027d366004611341565b61057e565b610198610290366004611565565b6105dc565b610221610624565b6102216102ab366004611580565b610638565b6007546001600160a01b03166101f6565b6101d66106c2565b6101986102d7366004611341565b6106d1565b6101986102ea366004611341565b610716565b6102216102fd3660046115a2565b61075b565b6102216103103660046115de565b610766565b6101d6610323366004611341565b61077e565b610198610336366004611341565b60096020526000908152604090205481565b61019861035636600461165a565b610789565b6101be6103693660046116b1565b610891565b61019861037c366004611341565b600a6020526000908152604090205481565b61022161039c366004611565565b6108bf565b60006103ac826108fd565b92915050565b6060600080546103c1906116e4565b80601f01602080910402602001604051908101604052809291908181526020018280546103ed906116e4565b801561043a5780601f1061040f5761010080835404028352916020019161043a565b820191906000526020600020905b81548152906001019060200180831161041d57829003601f168201915b5050505050905090565b600061044f82610922565b506000828152600460205260409020546001600160a01b03166103ac565b61047882823361095a565b5050565b610484610967565b600061048f83610994565b6001600160a01b0316036104be5760405162461bcd60e51b81526004016104b59061171e565b60405180910390fd5b61047882826109af565b6001600160a01b0382166104f257604051633250574960e11b8152600060048201526024016104b5565b60006104ff8383336109ff565b9050836001600160a01b0316816001600160a01b03161461054d576040516364283d7b60e01b81526001600160a01b03808616600483015260248201849052821660448201526064016104b5565b50505050565b61056e83838360405180602001604052806000815250610766565b505050565b60006103ac82610922565b6000818152600a60205260408120548082036103ac5760405162461bcd60e51b815260206004820152601e60248201527f4e6f204450502065786973747320666f7220746869732070726f64756374000060448201526064016104b5565b60006001600160a01b038216610608576040516322718ad960e21b8152600060048201526024016104b5565b506001600160a01b031660009081526003602052604090205490565b61062c610967565b6106366000610a8c565b565b610640610967565b600061064b83610994565b6001600160a01b0316036106715760405162461bcd60e51b81526004016104b59061171e565b6000828152600b6020526040908190208290555182907fbf72494abeb41ebcbebb2336bea955f18098ff14bc9264d4ab666168b67af0b3906106b69084815260200190565b60405180910390a25050565b6060600180546103c1906116e4565b6000806106dd83610994565b6001600160a01b0316036107035760405162461bcd60e51b81526004016104b59061171e565b506000908152600b602052604090205490565b60008061072283610994565b6001600160a01b0316036107485760405162461bcd60e51b81526004016104b59061171e565b5060009081526009602052604090205490565b610478338383610ade565b6107718484846104c8565b61054d3385858585610b7d565b60606103ac82610ca8565b6000610793610967565b6000848152600a6020526040902054156107fb5760405162461bcd60e51b815260206004820152602360248201527f44505020616c72656164792065786973747320666f7220746869732070726f646044820152621d58dd60ea1b60648201526084016104b5565b6008805490600061080b8361174c565b909155505060085461081d8482610db9565b61082781846109af565b6000818152600960209081526040808320889055878352600a8252808320849055838352600b909152808220829055516001600160a01b03861691879184917fe03895c8ee02d8872b90535db600212dd26a861cd7ae3dca457eeb0888fc68c691a4949350505050565b6001600160a01b03918216600090815260056020908152604080832093909416825291909152205460ff1690565b6108c7610967565b6001600160a01b0381166108f157604051631e4fbdf760e01b8152600060048201526024016104b5565b6108fa81610a8c565b50565b60006001600160e01b03198216632483248360e11b14806103ac57506103ac82610dd3565b60008061092e83610994565b90506001600160a01b0381166103ac57604051637e27328960e01b8152600481018490526024016104b5565b61056e8383836001610e23565b6007546001600160a01b031633146106365760405163118cdaa760e01b81523360048201526024016104b5565b6000908152600260205260409020546001600160a01b031690565b60008281526006602052604090206109c782826117b9565b506040518281527ff8e1a15aba9398e019f0b49df1a4fde98ee17ae345cb5f6b5e2c27f5033e8ce79060200160405180910390a15050565b600080610a0b84610994565b90506000610a1a868686610f29565b90506001600160a01b03821615801590610a3c57506001600160a01b03861615155b15610a8357856001600160a01b0316826001600160a01b0316867f16b85f49bf01212961345d3016c9a531894accf62eb7680f2045d79185cc0ec060405160405180910390a45b95945050505050565b600780546001600160a01b038381166001600160a01b0319831681179093556040519116919082907f8be0079c531659141344cd1fd0a4f28419497f9722a3daafe3b4186f6b6457e090600090a35050565b6001600160a01b038216610b1057604051630b61174360e31b81526001600160a01b03831660048201526024016104b5565b6001600160a01b03838116600081815260056020908152604080832094871680845294825291829020805460ff191686151590811790915591519182527f17307eab39ab6107e8899845ad3d59bd9653f200f220920489ca2b5937696c31910160405180910390a3505050565b6001600160a01b0383163b15610ca157604051630a85bd0160e11b81526001600160a01b0384169063150b7a0290610bbf908890889087908790600401611879565b6020604051808303816000875af1925050508015610bfa575060408051601f3d908101601f19168201909252610bf7918101906118b6565b60015b610c63573d808015610c28576040519150601f19603f3d011682016040523d82523d6000602084013e610c2d565b606091505b508051600003610c5b57604051633250574960e11b81526001600160a01b03851660048201526024016104b5565b805160208201fd5b6001600160e01b03198116630a85bd0160e11b14610c9f57604051633250574960e11b81526001600160a01b03851660048201526024016104b5565b505b5050505050565b6060610cb382610922565b5060008281526006602052604081208054610ccd906116e4565b80601f0160208091040260200160405190810160405280929190818152602001828054610cf9906116e4565b8015610d465780601f10610d1b57610100808354040283529160200191610d46565b820191906000526020600020905b815481529060010190602001808311610d2957829003601f168201915b505050505090506000610d6460408051602081019091526000815290565b90508051600003610d76575092915050565b815115610da8578082604051602001610d909291906118d3565b60405160208183030381529060405292505050919050565b610db18461101d565b949350505050565b610478828260405180602001604052806000815250611092565b60006001600160e01b031982166380ac58cd60e01b1480610e0457506001600160e01b03198216635b5e139f60e01b145b806103ac57506301ffc9a760e01b6001600160e01b03198316146103ac565b8080610e3757506001600160a01b03821615155b15610ef9576000610e4784610922565b90506001600160a01b03831615801590610e735750826001600160a01b0316816001600160a01b031614155b8015610e865750610e848184610891565b155b15610eaf5760405163a9fbf51f60e01b81526001600160a01b03841660048201526024016104b5565b8115610ef75783856001600160a01b0316826001600160a01b03167f8c5be1e5ebec7d5bd14f71427d1e84f3dd0314c0f7b2291e5b200ac8c7c3b92560405160405180910390a45b505b5050600090815260046020526040902080546001600160a01b0319166001600160a01b0392909216919091179055565b600080610f3584610994565b90506001600160a01b03831615610f5157610f518184866110aa565b6001600160a01b03811615610f8f57610f6e600085600080610e23565b6001600160a01b038116600090815260036020526040902080546000190190555b6001600160a01b03851615610fbe576001600160a01b0385166000908152600360205260409020805460010190555b60008481526002602052604080822080546001600160a01b0319166001600160a01b0389811691821790925591518793918516917fddf252ad1be2c89b69c2b068fc378daa952ba7f163c4a11628f55a4df523b3ef91a4949350505050565b606061102882610922565b50600061104060408051602081019091526000815290565b90506000815111611060576040518060200160405280600081525061108b565b8061106a8461110e565b60405160200161107b9291906118d3565b6040516020818303038152906040525b9392505050565b61109c83836111a1565b61056e336000858585610b7d565b6110b5838383611206565b61056e576001600160a01b0383166110e357604051637e27328960e01b8152600481018290526024016104b5565b60405163177e802f60e01b81526001600160a01b0383166004820152602481018290526044016104b5565b6060600061111b83611269565b600101905060008167ffffffffffffffff81111561113b5761113b611436565b6040519080825280601f01601f191660200182016040528015611165576020820181803683370190505b5090508181016020015b600019016f181899199a1a9b1b9c1cb0b131b232b360811b600a86061a8153600a850494508461116f57509392505050565b6001600160a01b0382166111cb57604051633250574960e11b8152600060048201526024016104b5565b60006111d9838360006109ff565b90506001600160a01b0381161561056e576040516339e3563760e11b8152600060048201526024016104b5565b60006001600160a01b03831615801590610db15750826001600160a01b0316846001600160a01b0316148061124057506112408484610891565b80610db15750506000908152600460205260409020546001600160a01b03908116911614919050565b60008072184f03e93ff9f4daa797ed6e38ed64bf6a1f0160401b83106112a85772184f03e93ff9f4daa797ed6e38ed64bf6a1f0160401b830492506040015b6d04ee2d6d415b85acef810000000083106112d4576d04ee2d6d415b85acef8100000000830492506020015b662386f26fc1000083106112f257662386f26fc10000830492506010015b6305f5e100831061130a576305f5e100830492506008015b612710831061131e57612710830492506004015b60648310611330576064830492506002015b600a83106103ac5760010192915050565b60006020828403121561135357600080fd5b5035919050565b6001600160e01b0319811681146108fa57600080fd5b60006020828403121561138257600080fd5b813561108b8161135a565b60005b838110156113a8578181015183820152602001611390565b50506000910152565b600081518084526113c981602086016020860161138d565b601f01601f19169290920160200192915050565b60208152600061108b60208301846113b1565b80356001600160a01b038116811461140757600080fd5b919050565b6000806040838503121561141f57600080fd5b611428836113f0565b946020939093013593505050565b634e487b7160e01b600052604160045260246000fd5b600067ffffffffffffffff8084111561146757611467611436565b604051601f8501601f19908116603f0116810190828211818310171561148f5761148f611436565b816040528093508581528686860111156114a857600080fd5b858560208301376000602087830101525050509392505050565b600082601f8301126114d357600080fd5b61108b8383356020850161144c565b600080604083850312156114f557600080fd5b82359150602083013567ffffffffffffffff81111561151357600080fd5b61151f858286016114c2565b9150509250929050565b60008060006060848603121561153e57600080fd5b611547846113f0565b9250611555602085016113f0565b9150604084013590509250925092565b60006020828403121561157757600080fd5b61108b826113f0565b6000806040838503121561159357600080fd5b50508035926020909101359150565b600080604083850312156115b557600080fd5b6115be836113f0565b9150602083013580151581146115d357600080fd5b809150509250929050565b600080600080608085870312156115f457600080fd5b6115fd856113f0565b935061160b602086016113f0565b925060408501359150606085013567ffffffffffffffff81111561162e57600080fd5b8501601f8101871361163f57600080fd5b61164e8782356020840161144c565b91505092959194509250565b60008060006060848603121561166f57600080fd5b8335925061167f602085016113f0565b9150604084013567ffffffffffffffff81111561169b57600080fd5b6116a7868287016114c2565b9150509250925092565b600080604083850312156116c457600080fd5b6116cd836113f0565b91506116db602084016113f0565b90509250929050565b600181811c908216806116f857607f821691505b60208210810361171857634e487b7160e01b600052602260045260246000fd5b50919050565b602080825260149082015273151bdad95b88191bd95cc81b9bdd08195e1a5cdd60621b604082015260600190565b60006001820161176c57634e487b7160e01b600052601160045260246000fd5b5060010190565b601f82111561056e57600081815260208120601f850160051c8101602086101561179a5750805b601f850160051c820191505b81811015610c9f578281556001016117a6565b815167ffffffffffffffff8111156117d3576117d3611436565b6117e7816117e184546116e4565b84611773565b602080601f83116001811461181c57600084156118045750858301515b600019600386901b1c1916600185901b178555610c9f565b600085815260208120601f198616915b8281101561184b5788860151825594840194600190910190840161182c565b50858210156118695787850151600019600388901b60f8161c191681555b5050505050600190811b01905550565b6001600160a01b03858116825284166020820152604081018390526080606082018190526000906118ac908301846113b1565b9695505050505050565b6000602082840312156118c857600080fd5b815161108b8161135a565b600083516118e581846020880161138d565b8351908301906118f981836020880161138d565b0194935050505056fea26469706673582212202e4812c9274ea08028adcc0cec56ea6ce486f330db1193d027c383e0e08f536364736f6c63430008140033",
  "linkReferences": {},
  "deployedLinkReferences": {}
}