{
  "_format": "hh-sol-artifact-1",
  "contractName": "SakshiCoin",
  "sourceName": "contracts/SakshiCoin.sol",
  "abi": [
    {
      "inputs": [],
      "stateMutability": "nonpayable",
      "type": "constructor"
    },
    {
      "inputs": [
        {
          "internalType": "address",
          "name": "spender",
          "type": "address"
        },
        {
          "internalType": "uint256",
          "name": "allowance",
          "type": "uint256"
        },
        {
          "internalType": "uint256",
          "name": "needed",
          "type": "uint256"
        }
      ],
      "name": "ERC20InsufficientAllowance",
      "type": "error"
    },
    {
      "inputs": [
        {
          "internalType": "address",
          "name": "sender",
          "type": "address"
        },
        {
          "internalType": "uint256",
          "name": "balance",
          "type": "uint256"
        },
        {
          "internalType": "uint256",
          "name": "needed",
          "type": "uint256"
        }
      ],
      "name": "ERC20InsufficientBalance",
      "type": "error"
    },
    {
      "inputs": [
        {
          "internalType": "address",
          "name": "approver",
          "type": "address"
        }
      ],
      "name": "ERC20InvalidApprover",
      "type": "error"
    },
    {
      "inputs": [
        {
          "internalType": "address",
          "name": "receiver",
          "type": "address"
        }
      ],
      "name": "ERC20InvalidReceiver",
      "type": "error"
    },
    {
      "inputs": [
        {
          "internalType": "address",
          "name": "sender",
          "type": "address"
        }
      ],
      "name": "ERC20InvalidSender",
      "type": "error"
    },
    {
      "inputs": [
        {
          "internalType": "address",
          "name": "spender",
          "type": "address"
        }
      ],
      "name": "ERC20InvalidSpender",
      "type": "error"
    },
    {
      "inputs": [
        {
          "internalType": "address",
          "name": "owner",
          "type": "address"
        }
      ],
      "name": "OwnableInvalidOwner",
      "type": "error"
    },
    {
      "inputs": [
        {
          "internalType": "address",
          "name": "account",
          "type": "address"
        }
      ],
      "name": "OwnableUnauthorizedAccount",
      "type": "error"
    },
    {
      "anonymous": false,
      "inputs": [
        {
          "indexed": true,
          "internalType": "address",
          "name": "owner",
          "type": "address"
        },
        {
          "indexed": true,
          "internalType": "address",
          "name": "spender",
          "type": "address"
        },
        {
          "indexed": false,
          "internalType": "uint256",
          "name": "value",
          "type": "uint256"
        }
      ],
      "name": "Approval",
      "type": "event"
    },
    {
      "anonymous": false,
      "inputs": [
        {
          "indexed": true,
          "internalType": "address",
          "name": "minter",
          "type": "address"
        }
      ],
      "name": "MinterAuthorized",
      "type": "event"
    },
    {
      "anonymous": false,
      "inputs": [
        {
          "indexed": true,
          "internalType": "address",
          "name": "minter",
          "type": "address"
        }
      ],
      "name": "MinterRevoked",
      "type": "event"
    },
    {
      "anonymous": false,
      "inputs": [
        {
          "indexed": true,
          "internalType": "address",
          "name": "previousOwner",
          "type": "address"
        },
        {
          "indexed": true,
          "internalType": "address",
          "name": "newOwner",
          "type": "address"
        }
      ],
      "name": "OwnershipTransferred",
      "type": "event"
    },
    {
      "anonymous": false,
      "inputs": [
        {
          "indexed": true,
          "internalType": "address",
          "name": "recipient",
          "type": "address"
        },
        {
          "indexed": false,
          "internalType": "uint256",
          "name": "amount",
          "type": "uint256"
        },
        {
          "indexed": false,
          "internalType": "string",
          "name": "reason",
          "type": "string"
        }
      ],
      "name": "TokensAwarded",
      "type": "event"
    },
    {
      "anonymous": false,
      "inputs": [
        {
          "indexed": true,
          "internalType": "address",
          "name": "from",
          "type": "address"
        },
        {
          "indexed": true,
          "internalType": "address",
          "name": "to",
          "type": "address"
        },
        {
          "indexed": false,
          "internalType": "uint256",
          "name": "value",
          "type": "uint256"
        }
      ],
      "name": "Transfer",
      "type": "event"
    },
    {
      "inputs": [],
      "name": "MAX_SUPPLY",
      "outputs": [
        {
          "internalType": "uint256",
          "name": "",
          "type": "uint256"
        }
      ],
      "stateMutability": "view",
      "type": "function"
    },
    {
      "inputs": [
        {
          "internalType": "address",
          "name": "owner",
          "type": "address"
        },
        {
          "internalType": "address",
          "name": "spender",
          "type": "address"
        }
      ],
      "name": "allowance",
      "outputs": [
        {
          "internalType": "uint256",
          "name": "",
          "type": "uint256"
        }
      ],
      "stateMutability": "view",
      "type": "function"
    },
    {
      "inputs": [
        {
          "internalType": "address",
          "name": "spender",
          "type": "address"
        },
        {
          "internalType": "uint256",
          "name": "value",
          "type": "uint256"
        }
      ],
      "name": "approve",
      "outputs": [
        {
          "internalType": "bool",
          "name": "",
          "type": "bool"
        }
      ],
      "stateMutability": "nonpayable",
      "type": "function"
    },
    {
      "inputs": [
        {
          "internalType": "address",
          "name": "minter",
          "type": "address"
        }
      ],
      "name": "authorizeMinter",
      "outputs": [],
      "stateMutability": "nonpayable",
      "type": "function"
    },
    {
      "inputs": [
        {
          "internalType": "address",
          "name": "",
          "type": "address"
        }
      ],
      "name": "authorizedMinters",
      "outputs": [
        {
          "internalType": "bool",
          "name": "",
          "type": "bool"
        }
      ],
      "stateMutability": "view",
      "type": "function"
    },
    {
      "inputs": [
        {
          "internalType": "address",
          "name": "recipient",
          "type": "address"
        },
        {
          "internalType": "uint256",
          "name": "amount",
          "type": "uint256"
        },
        {
          "internalType": "string",
          "name": "reason",
          "type": "string"
        }
      ],
      "name": "awardTokens",
      "outputs": [],
      "stateMutability": "nonpayable",
      "type": "function"
    },
    {
      "inputs": [
        {
          "internalType": "address",
          "name": "account",
          "type": "address"
        }
      ],
      "name": "balanceOf",
      "outputs": [
        {
          "internalType": "uint256",
          "name": "",
          "type": "uint256"
        }
      ],
      "stateMutability": "view",
      "type": "function"
    },
    {
      "inputs": [
        {
          "internalType": "address[]",
          "name": "recipients",
          "type": "address[]"
        },
        {
          "internalType": "uint256[]",
          "name": "amounts",
          "type": "uint256[]"
        }
      ],
      "name": "batchAward",
      "outputs": [],
      "stateMutability": "nonpayable",
      "type": "function"
    },
    {
      "inputs": [
        {
          "internalType": "uint256",
          "name": "value",
          "type": "uint256"
        }
      ],
      "name": "burn",
      "outputs": [],
      "stateMutability": "nonpayable",
      "type": "function"
    },
    {
      "inputs": [
        {
          "internalType": "address",
          "name": "account",
          "type": "address"
        },
        {
          "internalType": "uint256",
          "name": "value",
          "type": "uint256"
        }
      ],
      "name": "burnFrom",
      "outputs": [],
      "stateMutability": "nonpayable",
      "type": "function"
    },
    {
      "inputs": [],
      "name": "decimals",
      "outputs": [
        {
          "internalType": "uint8",
          "name": "",
          "type": "uint8"
        }
      ],
      "stateMutability": "pure",
      "type": "function"
    },
    {
      "inputs": [
        {
          "internalType": "address",
          "name": "to",
          "type": "address"
        },
        {
          "internalType": "uint256",
          "name": "amount",
          "type": "uint256"
        }
      ],
      "name": "mint",
      "outputs": [],
      "stateMutability": "nonpayable",
      "type": "function"
    },
    {
      "inputs": [],
      "name": "name",
      "outputs": [
        {
          "internalType": "string",
          "name": "",
          "type": "string"
        }
      ],
      "stateMutability": "view",
      "type": "function"
    },
    {
      "inputs": [],
      "name": "owner",
      "outputs": [
        {
          "internalType": "address",
          "name": "",
          "type": "address"
        }
      ],
      "stateMutability": "view",
      "type": "function"
    },
    {
      "inputs": [],
      "name": "renounceOwnership",
      "outputs": [],
      "stateMutability": "nonpayable",
      "type": "function"
    },
    {
      "inputs": [
        {
          "internalType": "address",
          "name": "minter",
          "type": "address"
        }
      ],
      "name": "revokeMinter",
      "outputs": [],
      "stateMutability": "nonpayable",
      "type": "function"
    },
    {
      "inputs": [],
      "name": "symbol",
      "outputs": [
        {
          "internalType": "string",
          "name": "",
          "type": "string"
        }
      ],
      "stateMutability": "view",
      "type": "function"
    },
    {
      "inputs": [],
      "name": "totalSupply",
      "outputs": [
        {
          "internalType": "uint256",
          "name": "",
          "type": "uint256"
        }
      ],
      "stateMutability": "view",
      "type": "function"
    },
    {
      "inputs": [
        {
          "internalType": "address",
          "name": "to",
          "type": "address"
        },
        {
          "internalType": "uint256",
          "name": "value",
          "type": "uint256"
        }
      ],
      "name": "transfer",
      "outputs": [
        {
          "internalType": "bool",
          "name": "",
          "type": "bool"
        }
      ],
      "stateMutability": "nonpayable",
      "type": "function"
    },
    {
      "inputs": [
        {
          "internalType": "address",
          "name": "from",
          "type": "address"
        },
        {
          "internalType": "address",
          "name": "to",
          "type": "address"
        },
        {
          "internalType": "uint256",
          "name": "value",
          "type": "uint256"
        }
      ],
      "name": "transferFrom",
      "outputs": [
        {
          "internalType": "bool",
          "name": "",
          "type": "bool"
        }
      ],
      "stateMutability": "nonpayable",
      "type": "function"
    },
    {
      "inputs": [
        {
          "internalType": "address",
          "name": "newOwner",
          "type": "address"
        }
      ],
      "name": "transferOwnership",
      "outputs": [],
      "stateMutability": "nonpayable",
      "type": "function"
    }
  ],
  "bytecode": "0x60806040523480156200001157600080fd5b50336040518060400160405280600a81526020016929b0b5b9b434a1b7b4b760b11b8152506040518060400160405280600381526020016253414b60e81b815250816003908162000063919062000336565b50600462000072828262000336565b5050506001600160a01b038116620000a557604051631e4fbdf760e01b8152600060048201526024015b60405180910390fd5b620000b081620000ce565b50620000c8336a52b7d2dcc80cd2e400000062000120565b6200042a565b600580546001600160a01b038381166001600160a01b0319831681179093556040519116919082907f8be0079c531659141344cd1fd0a4f28419497f9722a3daafe3b4186f6b6457e090600090a35050565b6001600160a01b0382166200014c5760405163ec442f0560e01b8152600060048201526024016200009c565b6200015a600083836200015e565b5050565b6001600160a01b0383166200018d57806002600082825462000181919062000402565b90915550620002019050565b6001600160a01b03831660009081526020819052604090205481811015620001e25760405163391434e360e21b81526001600160a01b038516600482015260248101829052604481018390526064016200009c565b6001600160a01b03841660009081526020819052604090209082900390555b6001600160a01b0382166200021f576002805482900390556200023e565b6001600160a01b03821660009081526020819052604090208054820190555b816001600160a01b0316836001600160a01b03167fddf252ad1be2c89b69c2b068fc378daa952ba7f163c4a11628f55a4df523b3ef836040516200028491815260200190565b60405180910390a3505050565b634e487b7160e01b600052604160045260246000fd5b600181811c90821680620002bc57607f821691505b602082108103620002dd57634e487b7160e01b600052602260045260246000fd5b50919050565b601f8211156200033157600081815260208120601f850160051c810160208610156200030c5750805b601f850160051c820191505b818110156200032d5782815560010162000318565b5050505b505050565b81516001600160401b0381111562000352576200035262000291565b6200036a81620003638454620002a7565b84620002e3565b602080601f831160018114620003a25760008415620003895750858301515b600019600386901b1c1916600185901b1785556200032d565b600085815260208120601f198616915b82811015620003d357888601518255948401946001909101908401620003b2565b5085821015620003f25787850151600019600388901b60f8161c191681555b5050505050600190811b01905550565b808201808211156200042457634e487b7160e01b600052601160045260246000fd5b92915050565b61112f806200043a6000396000f3fe608060405234801561001057600080fd5b50600436106101375760003560e01c806370a08231116100b8578063a9059cbb1161007c578063a9059cbb14610279578063aa2fe91b1461028c578063adba130b146102af578063cfbd4885146102c2578063dd62ed3e146102d5578063f2fde38b1461030e57600080fd5b806370a0823114610212578063715018a61461023b57806379cc6790146102435780638da5cb5b1461025657806395d89b411461027157600080fd5b806323b872dd116100ff57806323b872dd146101b7578063313ce567146101ca57806332cb6b0c146101d957806340c10f19146101ec57806342966c68146101ff57600080fd5b806306fdde031461013c578063095ea7b31461015a5780630c9848321461017d578063160c4d371461019257806318160ddd146101a5575b600080fd5b610144610321565b6040516101519190610cc7565b60405180910390f35b61016d610168366004610cfd565b6103b3565b6040519015158152602001610151565b61019061018b366004610d27565b6103cd565b005b6101906101a0366004610d89565b610475565b6002545b604051908152602001610151565b61016d6101c5366004610e38565b61057a565b60405160128152602001610151565b6101a96b033b2e3c9fd0803ce800000081565b6101906101fa366004610cfd565b61059e565b61019061020d366004610e74565b610658565b6101a9610220366004610d27565b6001600160a01b031660009081526020819052604090205490565b610190610665565b610190610251366004610cfd565b610679565b6005546040516001600160a01b039091168152602001610151565b61014461068e565b61016d610287366004610cfd565b61069d565b61016d61029a366004610d27565b60066020526000908152604090205460ff1681565b6101906102bd366004610f1c565b6106ab565b6101906102d0366004610d27565b610820565b6101a96102e3366004610fdc565b6001600160a01b03918216600090815260016020908152604080832093909416825291909152205490565b61019061031c366004610d27565b610871565b6060600380546103309061100f565b80601f016020809104026020016040519081016040528092919081815260200182805461035c9061100f565b80156103a95780601f1061037e576101008083540402835291602001916103a9565b820191906000526020600020905b81548152906001019060200180831161038c57829003601f168201915b5050505050905090565b6000336103c18185856108ac565b60019150505b92915050565b6103d56108b9565b6001600160a01b0381166104295760405162461bcd60e51b8152602060048201526016602482015275496e76616c6964206d696e746572206164647265737360501b60448201526064015b60405180910390fd5b6001600160a01b038116600081815260066020526040808220805460ff19166001179055517f83b05b6735acd4b85e3bded8e72c851d1a87718f81e3c8e6f0c9d9a2baa88e469190a250565b6005546001600160a01b031633148061049d57503360009081526006602052604090205460ff165b6104e95760405162461bcd60e51b815260206004820152601e60248201527f4e6f7420617574686f72697a656420746f20617761726420746f6b656e7300006044820152606401610420565b6b033b2e3c9fd0803ce80000008261050060025490565b61050a919061105f565b11156105285760405162461bcd60e51b815260040161042090611072565b61053283836108e6565b826001600160a01b03167f05f2fd723185554fdf2a816cc51fac921d92feebdbe92c9b0cee9decb58f9c5f838360405161056d9291906110a9565b60405180910390a2505050565b60003361058885828561091c565b61059385858561099b565b506001949350505050565b6005546001600160a01b03163314806105c657503360009081526006602052604090205460ff165b61060b5760405162461bcd60e51b8152602060048201526016602482015275139bdd08185d5d1a1bdc9a5e9959081d1bc81b5a5b9d60521b6044820152606401610420565b6b033b2e3c9fd0803ce80000008161062260025490565b61062c919061105f565b111561064a5760405162461bcd60e51b815260040161042090611072565b61065482826108e6565b5050565b61066233826109fa565b50565b61066d6108b9565b6106776000610a30565b565b61068482338361091c565b61065482826109fa565b6060600480546103309061100f565b6000336103c181858561099b565b6005546001600160a01b03163314806106d357503360009081526006602052604090205460ff165b61071f5760405162461bcd60e51b815260206004820152601e60248201527f4e6f7420617574686f72697a656420746f20617761726420746f6b656e7300006044820152606401610420565b80518251146107695760405162461bcd60e51b8152602060048201526016602482015275082e4e4c2f2e640d8cadccee8d040dad2e6dac2e8c6d60531b6044820152606401610420565b60005b825181101561081b576b033b2e3c9fd0803ce8000000828281518110610794576107946110ca565b60200260200101516107a560025490565b6107af919061105f565b11156107cd5760405162461bcd60e51b815260040161042090611072565b6108098382815181106107e2576107e26110ca565b60200260200101518383815181106107fc576107fc6110ca565b60200260200101516108e6565b80610813816110e0565b91505061076c565b505050565b6108286108b9565b6001600160a01b038116600081815260066020526040808220805460ff19169055517f44f4322f8daa225d5f4877ad0f7d3dfba248a774396f3ca99405ed40a044fe819190a250565b6108796108b9565b6001600160a01b0381166108a357604051631e4fbdf760e01b815260006004820152602401610420565b61066281610a30565b61081b8383836001610a82565b6005546001600160a01b031633146106775760405163118cdaa760e01b8152336004820152602401610420565b6001600160a01b0382166109105760405163ec442f0560e01b815260006004820152602401610420565b61065460008383610b57565b6001600160a01b03838116600090815260016020908152604080832093861683529290522054600019811015610995578181101561098657604051637dc7a0d960e11b81526001600160a01b03841660048201526024810182905260448101839052606401610420565b61099584848484036000610a82565b50505050565b6001600160a01b0383166109c557604051634b637e8f60e11b815260006004820152602401610420565b6001600160a01b0382166109ef5760405163ec442f0560e01b815260006004820152602401610420565b61081b838383610b57565b6001600160a01b038216610a2457604051634b637e8f60e11b815260006004820152602401610420565b61065482600083610b57565b600580546001600160a01b038381166001600160a01b0319831681179093556040519116919082907f8be0079c531659141344cd1fd0a4f28419497f9722a3daafe3b4186f6b6457e090600090a35050565b6001600160a01b038416610aac5760405163e602df0560e01b815260006004820152602401610420565b6001600160a01b038316610ad657604051634a1406b160e11b815260006004820152602401610420565b6001600160a01b038085166000908152600160209081526040808320938716835292905220829055801561099557826001600160a01b0316846001600160a01b03167f8c5be1e5ebec7d5bd14f71427d1e84f3dd0314c0f7b2291e5b200ac8c7c3b92584604051610b4991815260200190565b60405180910390a350505050565b6001600160a01b038316610b82578060026000828254610b77919061105f565b90915550610bf49050565b6001600160a01b03831660009081526020819052604090205481811015610bd55760405163391434e360e21b81526001600160a01b03851660048201526024810182905260448101839052606401610420565b6001600160a01b03841660009081526020819052604090209082900390555b6001600160a01b038216610c1057600280548290039055610c2f565b6001600160a01b03821660009081526020819052604090208054820190555b816001600160a01b0316836001600160a01b03167fddf252ad1be2c89b69c2b068fc378daa952ba7f163c4a11628f55a4df523b3ef83604051610c7491815260200190565b60405180910390a3505050565b6000815180845260005b81811015610ca757602081850181015186830182015201610c8b565b506000602082860101526020601f19601f83011685010191505092915050565b602081526000610cda6020830184610c81565b9392505050565b80356001600160a01b0381168114610cf857600080fd5b919050565b60008060408385031215610d1057600080fd5b610d1983610ce1565b946020939093013593505050565b600060208284031215610d3957600080fd5b610cda82610ce1565b634e487b7160e01b600052604160045260246000fd5b604051601f8201601f1916810167ffffffffffffffff81118282101715610d8157610d81610d42565b604052919050565b600080600060608486031215610d9e57600080fd5b610da784610ce1565b92506020808501359250604085013567ffffffffffffffff80821115610dcc57600080fd5b818701915087601f830112610de057600080fd5b813581811115610df257610df2610d42565b610e04601f8201601f19168501610d58565b91508082528884828501011115610e1a57600080fd5b80848401858401376000848284010152508093505050509250925092565b600080600060608486031215610e4d57600080fd5b610e5684610ce1565b9250610e6460208501610ce1565b9150604084013590509250925092565b600060208284031215610e8657600080fd5b5035919050565b600067ffffffffffffffff821115610ea757610ea7610d42565b5060051b60200190565b600082601f830112610ec257600080fd5b81356020610ed7610ed283610e8d565b610d58565b82815260059290921b84018101918181019086841115610ef657600080fd5b8286015b84811015610f115780358352918301918301610efa565b509695505050505050565b60008060408385031215610f2f57600080fd5b823567ffffffffffffffff80821115610f4757600080fd5b818501915085601f830112610f5b57600080fd5b81356020610f6b610ed283610e8d565b82815260059290921b84018101918181019089841115610f8a57600080fd5b948201945b83861015610faf57610fa086610ce1565b82529482019490820190610f8f565b96505086013592505080821115610fc557600080fd5b50610fd285828601610eb1565b9150509250929050565b60008060408385031215610fef57600080fd5b610ff883610ce1565b915061100660208401610ce1565b90509250929050565b600181811c9082168061102357607f821691505b60208210810361104357634e487b7160e01b600052602260045260246000fd5b50919050565b634e487b7160e01b600052601160045260246000fd5b808201808211156103c7576103c7611049565b60208082526017908201527f576f756c6420657863656564206d617820737570706c79000000000000000000604082015260600190565b8281526040602082015260006110c26040830184610c81565b949350505050565b634e487b7160e01b600052603260045260246000fd5b6000600182016110f2576110f2611049565b506001019056fea264697066735822122008dc12fdcb84445e83e4efad73bf6714da0d034a161a43d223c2638e8c84810164736f6c63430008140033",
  "linkReferences": {},
  "deployedLinkReferences": {}
}